:020000040000FA
:020000000F28C7
:040002000034003492
:080008008C0003088D00632049
:1000100091000D0883008C0E0C0E8B1009008316C6
:100020008B138501FE308600011383128B170B168C
:100030001108303C031945281108313C03194828A0
:100040001108323C03194B281108333C03194E2880
:100050001108333C03194E281108343C0319512868
:100060001108353C031954281108363C0319572848
:100070001108373C03195A281108383C03195D2828
:100080001108393C03196028182800308500182809
:1000900001308500182802308500182803308500BB
:1000A00018280430850018280130860018280230EE
:1000B0008600182803308600182804308600182887
:1000C000053086001828900108308F00712006182E
:1000D0000314061C0310900C77208F0B6728100860
:1000E0000800C3308E0000008E0B73280800823099
:0A00F0008E0000008E0B7928080036
:02400E00F23F7F
:00000001FF
