:020000040000FA
:020000000F28C7
:040002000034003492
:080008008C0003088D00332079
:1000100091000D0883008C0E0C0E8B1009008316C6
:100020008B1385010F308600011383128B170B167B
:1000300011089200303092020319272801309202F1
:1000400003192A280130920203192D283028013083
:1000500085001828023085001828043085001828EB
:10006000083085001828900108308F0041200618BC
:100070000314061C0310900C47208F0B3728100820
:100080000800C3308E0000008E0B43280800823029
:0A0090008E0000008E0B49280800C6
:02400E00F23F7F
:00000001FF
