:020000040000FA
:020000001328C3
:040002000034003492
:080008008C0003088D000B1DA4
:100010000E288F0A3D3081000B110E280D08830039
:100020008C0E0C0E09008B1383168601863081001E
:10003000831286018E013D3081008B168B170E08CE
:100040002F2086008F012A208E0A0E08643C031997
:100050008E011F280F08143C031D2A280800FF39B1
:100060008207003401340234033404340534063486
:10007000073408340934103411341234133414346E
:1000800015341634173418341934203421342234FA
:100090002334243425342634273428342934303486
:1000A000313432343334343435343634373438340C
:1000B0003934403441344234433444344534463492
:1000C000473448344934503451345234533454341E
:1000D00055345634573458345934603461346234AA
:1000E0006334643465346634673468346934703436
:1000F00071347234733474347534763477347834BC
:100100007934803481348234833484348534863441
:1001100087348834893490349134923493349434CD
:0A01200095349634973498349934DE
:02400E00F23F7F
:00000001FF
