:020000040000FA
:1000000083160130850086010E309F0083128130F7
:100010009F00A101A20185018601A20124201F15D4
:100020001F1910281E08A10015280530A102031C65
:100030001F2803191F282208013EA2001528851435
:1000400022082A2086000D282030A0000000A00BE6
:1000500027280800FF3982070034013402340334B2
:1000600004340534063407340834093410341134A8
:100070001234133414341534163417341834193434
:1000800020342134223423342434253426342734B4
:100090002834293430343134323433343434353440
:1000A00036343734383439344034413442344334CC
:1000B0004434453446344734483449345034513458
:1000C00052345334543455345634573458345934E4
:1000D0006034613462346334643465346634673464
:1000E00068346934703471347234733474347534F0
:1000F000763477347834793480348134823483347C
:100100008434853486348734883489349034913407
:100110009234933494349534963497349834993493
:040120000034003473
:02400E00623F0F
:00000001FF
