:020000040000FA
:020000001428C2
:040002000034003492
:080008008C0003088D002E207E
:10001000910011089200921212081E200D08830010
:100020008C0E0C0E8B10090083168B1385010F307C
:100030008600011383128B170B161D2893000830BE
:100040008F000512422013180516131C05124220BA
:10005000930C8F0B232805164220080090010830CE
:100060008F003C2006180314061C0310900C42203D
:100070008F0B322810080800C3308E0000008E0B52
:100080003E28080082308E0000008E0B44280800B5
:02400E00F23F7F
:00000001FF
