:020000040000FA
:02000000432893
:040002000034003492
:080008008C0003088D00543048
:100010004D2041304D204B304D204F304D20203071
:100020004D2054304D2041304D2052304D204F3026
:100030004D202F304D20E7304D2094304D20B030F2
:100040004D20E5304D2085304D2089304D20E33066
:100050004D2080304D2080304D20E5304D20A430A3
:100060004D20AA304D20E9304D2083304D208E3078
:100070004D200D304D200A304D200D0883008C0E90
:100080000C0E8B10090083168B138501013086003E
:10009000831205168B170B164C28920008308F0020
:1000A00005125D2012180516121C05125D20920C17
:1000B0008F0B522805165D20080082308E0000004C
:0600C0008E0B5F28080012
:02400E00F23F7F
:00000001FF
