:020000040000FA
:100000008316860183120428192188230022BD2328
:10001000B12041218823BF21BD23D920612188231C
:100020008B21BD23F920E920BD23E9209A23192142
:1000300088230022BD23B120BD236E2388235121B4
:10004000BD235121BD23E920BD237B230121BD23F5
:1000500001216121BD236121F920E920BD23E9208F
:10006000D920D120D920B423F920E920BD23E920CB
:10007000D920BD23D920D920D120C120B423B1203B
:10008000192191239A23192188230022BD23B1200D
:1000900041218823BF21BD23D920612188238B21C1
:1000A000BD23F920E920BD23E920BD239A2319218E
:1000B00088230022B1206E23882351215121E92079
:1000C0007B230121012161216121F920E920E9201F
:1000D000D920D120D920F920E920E920D920D92020
:1000E000D920D120D920E920E920F920F9209A232C
:1000F0009A23D920D920D120C120B120A120B1201C
:1001000071217121E920D920D920D920E920F920B5
:1001100001210121C120882341214121D920D92059
:10012000D120D120D920D920D920D920D920D92017
:100130009A239A239A239A239A239A239A239A23D7
:10014000042804309500A52008001A22950BA52844
:10015000080004309500AD2008000D22950BAD2855
:10016000080004309500B52008000022950BB52842
:10017000080004309500BD200800F321950BBD2830
:10018000080004309500C5200800E621950BC5281D
:10019000080004309500CD200800D921950BCD280A
:1001A000080004309500D5200800CC21950BD528F7
:1001B000080004309500DD200800BF21950BDD28E4
:1001C000080004309500E5200800B221950BE528D1
:1001D000080004309500ED200800A521950BED28BE
:1001E000080004309500F52008009821950BF528AB
:1001F000080004309500FD2008008B21950BFD2898
:10020000080004309500052108007E21950B052982
:100210000800023096000D2108001A22960B0D29C5
:10022000080002309600152108000D22960B1529B2
:100230000800023096001D2108000022960B1D299F
:1002400008000230960025210800F321960B25298D
:100250000800023096002D210800E621960B2D297A
:1002600008000230960035210800D921960B352967
:100270000800023096003D210800CC21960B3D2954
:1002800008000230960045210800BF21960B452941
:100290000800023096004D210800B221960B4D292E
:1002A00008000230960055210800A521960B55291B
:1002B0000800023096005D2108009821960B5D2908
:1002C000080002309600652108008B21960B6529F5
:1002D0000800023096006D2108007E21960B6D29E2
:1002E0000800533094007521080000308600272252
:1002F000013086002722940B75290800583094009D
:1003000082210800003086004E23013086004E23F3
:10031000940B82290800533094008F21080000308C
:1003200086003722013086003722940B8F2908007F
:100330004F3094009C210800003086004C22013090
:1003400086004C22940B9C2908004A309400A92175
:100350000800003086005F22013086005F22940B87
:10036000A929080046309400B62108000030860014
:100370007B22013086007B22940BB6290800423094
:100380009400C321080000308600982201308600C6
:100390009822940BC32908003E309400D021080015
:1003A00000308600B12201308600B122940BD029A2
:1003B00008003B309400DD21080000308600C42294
:1003C00001308600C422940BDD29080038309400E7
:1003D000EA21080000308600DA2201308600DA22A5
:1003E000940BEA29080034309400F721080000300B
:1003F0008600F02201308600F022940BF7290800D5
:1004000031309400042208000030860003230130BC
:1004100086000323940B042A08002F309400112235
:100420000800003086002123013086002123940B30
:10043000112A08002C3094001E220800003086008B
:100440003A23013086003A23940B1E2A080002301A
:1004500093002B2208003722930B2B2A080002302E
:1004600093002B2208004C22930B2B2A0800063005
:1004700090000A3091004022442200000000080051
:10048000A323900B402A0800A823910B442A0800BC
:10049000AE23920B482A0800003090000B309100E8
:1004A000532257220800A323900B532A0800A823A5
:1004B000910B572A0800AE23920B5B2A08000A30E2
:1004C00090000B3091006F227322000000000000AA
:1004D0000000000000000000000000000800A3234E
:1004E000900B6F2A0800A823910B732A0800AE23F3
:1004F000920B772A0800053090000C3091008C2276
:100500009022000000000000000000000000000039
:100510000000000000000800A323900B8C2A0800B4
:10052000A823910B902A0800AE23920B942A08006E
:10053000013090000D309100A522A922000000009A
:1005400000000000000000000800A323900BA52A73
:100550000800A823910BA92A0800AE23920BAD2A0C
:1005600008000E3090000D309100B822BC22080027
:10057000A323900BB82A0800A823910BBC2A0800DB
:10058000AE23920BC02A08000B3090000E30910071
:10059000CE22D2220000000000000800A323900B0E
:1005A000CE2A0800A823910BD22A0800AE23920B72
:1005B000D62A0800093090000F309100E422E8228A
:1005C0000000000000000800A323900BE42A0800AC
:1005D000A823910BE82A0800AE23920BEC2A08000E
:1005E0000830900010309100F722FB220800A3236E
:1005F000900BF72A0800A823910BFB2A0800AE23D2
:10060000920BFF2A0800073090001130910015234B
:10061000192300000000000000000000000000009E
:1006200000000000000000000800A323900B152B21
:100630000800A823910B192B0800AE23920B1D2B49
:10064000080008309000123091002E233223000061
:10065000000000000000000000000800A323900B31
:100660002E2B0800A823910B322B0800AE23920BEF
:10067000362B08000A3090001330910042234623A5
:1006800000000800A323900B422B0800A823910B25
:10069000462B0800AE23920B4A2B08000C3090002A
:1006A0000930910062236623000000000000000072
:1006B000000000000000000000000000000000003A
:1006C00000000800A323900B622B0800A823910BC5
:1006D000662B0800AE23920B4A2B08000C309800C2
:1006E00072230800003086000323013086000323B4
:1006F000980B722B0800123098007F2308000030FE
:1007000086005F22013086005F22980B7F2B080055
:10071000003086002A3096008E230800960BAE2B00
:100720000800003086000230970097230800970BDE
:10073000882B08000030860002309800A0230800B3
:10074000980B912B080004308C008C0BA52B080013
:100750000C308D00A3238D0BAA2B080028308E00AF
:10076000A8238E0BB02B08000030860002309800C2
:10077000BA230800980B882B0800003086008823D5
:0207800008006F
:04078200003400340B
:02400E00FA3F77
:00000001FF
