:020000040000FA
:100000008316850186018312013091000030920031
:100010000030930002309400110812048600130887
:100020001404850013286B20031093185420131810
:100030004220911B3C20910D0310110812048600F0
:100040001308140485006B2003101418582094180A
:10005000482012184E20920C0310931854201318A5
:100060004220911B3C20910D0310110812048600C0
:100070001308140485001328031001309300003086
:100080009100080003100230930000309100080036
:100090000310013094000030920008000310023079
:1000A0009400003092000800003093000314080010
:1000B0000030940003140800A5308C0000000000FC
:1000C0008C0B6028080063308D00000000005C206D
:1000D0008D0B672808000A308E0063208E0B6D2878
:0200E000080016
:0400E20000340034B2
:02400E00FA3F77
:00000001FF
