:020000040000FA
:020000001B28BB
:040002000034003492
:080008008C0003088D000B1DA4
:100010000E288F0A3D3081000B1115280608940028
:10002000141B9509941B960915280D0883008C0E46
:100030000C0E0B1009008B138316C030860085014F
:10004000863081008312860185018E019001940122
:10005000950196019701990198013D3081008B151A
:100060008B168B170B103428951C342895013828D3
:100070009518752896187D280E0893209100971CD6
:1000800087208F0149208E0A0E08643C03194E20F8
:1000900038280F08143C031D492808008E01100859
:1000A000013E900010195A200800971C5A289918F0
:1000B00065285A2890019301920191018E018F01C8
:1000C0009701990196187228382896186C280E08FE
:1000D00093209100872038281808910087209901E3
:1000E000960138288720960138280E089320110899
:1000F00011089800961855283828991497099601E0
:10010000951875280E0893201108872038281108A3
:100110000F3985001108F0399300930C930C1308E4
:10012000100486000800FF398207003401340234CD
:1001300003340434053406340734083409341034E5
:10014000113412341334143415341634173418346B
:1001500019342034213422342334243425342634F1
:10016000273428342934303431343234333434347D
:100170003534363437343834393440344134423409
:100180004334443445344634473448344934503495
:10019000513452345334543455345634573458341B
:1001A00059346034613462346334643465346634A1
:1001B000673468346934703471347234733474342D
:1001C00075347634773478347934803481348234B9
:1001D0008334843485348634873488348934903445
:1001E00091349234933494349534963497349834CB
:0201F000993440
:02400E00F23F7F
:00000001FF
